:020000040000fa
:080000000010040000000000e4
:020000040000fa
:100008001e1500001e1500001e1500001e1500001c
:100018001e1500001e1500001e1500001e1500000c
:100028001e150000101300001e1500001e1500000c
:100038001e1500001e1500001e150000da11000034
:100048001e1500001e1500001e150000f01300000c
:10005800161500001e1500001e1500001e150000d4
:100068001e1500001e1500001e1500001e150000bc
:100078001e1500001e1500001e1500001e150000ac
:100088001e1500001e1500001e1500001e1500009c
:100098001e1500001e1500001e1500001e1500008c
:1000a8001e1500001e1500001e1500001e1500007c
:1000b8001e150000801300001e1500001e1500000c
:1000c8001e1500001e1500001e1500001e1500005c
:1000d8001e1500001e1500001e1500001e1500004c
:1000e8001e1500001e1500001e1500001e1500003c
:1000f8001e1500001e1500000a1100001e15000044
:100108001e1500001e1500001e1500001e1500001b
:100118001e1500001e1500001e1500001e1500000b
:100128001e1500001e1500001e1500001e150000fb
:100138001e1500001e1500001e1500001e150000eb
:100148001e1500001e1500001e1500001e150000db
:100158001e1500001e1500001e1500001e150000cb
:100168001e1500001e1500001e1500001e150000bb
:100178001e1500001e1500001e1500001e150000ab
:100188001e1500001e1500001e1500001e1500009b
:100198001e1500001e1500001e1500001e1500008b
:1001a8001e1500001e1500001e1500001e1500007b
:1001b8001e1500001e1500001e1500001e1500006b
:1001c8001e1500001e1500001e1500001e1500005b
:1001d8001e1500001e1500001e1500001e1500004b
:1001e8001e1500001e1500001e1500001e1500003b
:1001f8001e1500001e1500001e1500001e1500002b
:100208001e1500001e1500001e1500001e1500001a
:100218001e1500001e1500001e1500001e1500000a
:100228001e1500001e1500001e1500001e150000fa
:100238001e1500001e1500001e1500001e150000ea
:100248001e1500001e1500001e1500001e150000da
:100258001e1500001e1500001e1500001e150000ca
:020000040000fa
:10200000ef2927000eff27000e01880000000000c6
:10201000000020000000e00002003200000120006b
:10202000200288000e00070020422200010020004c
:10203000810f7000010032001d0007000000200029
:102040000000e0000200320000000200000000007a
:10205000ea230200000000000040da000000fe0059
:10206000200020000000e0000200320010002000ec
:102070009001880000000600f03fb1000180b1002f
:1020800006003500ee03090000000000403fb100eb
:102090000180b100fbff3d001000b000203fb00008
:1020a000020035000080090000000000000006006a
:1020b000a1028800800478000000eb001f003700b8
:1020c000e284440054a0b4009905ba00e2844400bc
:1020d00054a0b4009906ba00e284440054a0b400ad
:1020e0000006eb00476fde00fd07b200ae0188007e
:1020f000636ce10003003a000ad801000000eb0025
:102100000e003700606ce10008003a00004deb0063
:102110000a05e800020039003420ec000af0a000b3
:102120008b05e900f9ff3e00040037006168e1001b
:10213000010032000086eb000b00070019c7ba004f
:102140000e04e0001905ba0003003a000a00e0009e
:10215000dbff3a0000000600fe07b200ae02880076
:102160008a047800f5ff37000cd0a300e20f4d0081
:102170001c00390089027800354dba000a05e800d4
:10218000020039003420ec000af0a0008b05e900c1
:102190000f003200254dba000a05e80002003900a0
:1021a0003420ec000af0a0008b05e90008003200a2
:1021b0000c00e0000600320015cdba000a05e80068
:1021c000020039003420ec000af0a0008b05e90081
:1021d0008984e80054a0b4000b00e000e2ff3a005c
:1021e000000006009902ba00055d78008b05e90041
:1021f000f7ff3200c82ade00055d78008b05e90094
:10220000f3ff32000c00e000f1ff320019ddba00ec
:10221000eeff37003600f800809fbe00829fbe00b0
:10222000849fbe00869fbe000e00fa000000eb00f7
:102230003007980050042700104078000004e000a8
:102240000f003a001006270011c0b30001487800c3
:1022500011938300010f78002193830011079800e8
:102260003193830021079800100627008040eb007f
:102270000148780010002000300798003000370037
:102280001182830000828300808f50002c00320076
:1022900011828300f0ff200000806000400798005a
:1022a000ce009000f00f20000080600050079800e2
:1022b0005e00900080004000200627000080400063
:1022c00090007800610798004e0090008000400068
:1022d0000004210000804000100f78004e009000a4
:1022e000800040000004230000804000900078003f
:1022f000110798004e009000800040000004250067
:102300000080400090007800210798005e00900057
:1023100080004000200627000080400090007800e8
:102320006e009000808f500005003a0010828300fc
:102330000000e80010828b00100020003007980099
:102340003e0090000000e000050032002e019000e9
:102350009e0090001e0078004b0807000d0037001b
:1023600000062700104078000004e00005003a0055
:10237000350ea8000006270011c0b3000148780000
:1023800004003700350ea900000627008040eb004e
:102390000148780006c8a9000080fa004f03be007b
:1023a0004f02be004f01be004f00be003600f900d4
:1023b00000400600809fbe00829fbe001600fa000b
:1023c000c0948300f30f500004003e00c0948300cb
:1023d0000000e800c0948b008c0037001000200043
:1023e000c0948b004004270010407800e14f50005b
:1023f00007003a000000eb0040938b0040042700e8
:102400008040eb00014878000082830010828b003e
:1024100041938300210798007082830081828300aa
:102420004008de0080007800f00f2000008060008f
:102430003007980090828300a18283004809dd0064
:102440004800de0000007100c808de00800078004f
:1024500000f02f0000806000be00900001007000be
:1024600030079800be0090004107980070828300fa
:10247000818283005007980090828300a1828300ac
:1024800060079800409383000000e80040938b00b1
:1024900050042700104078000004e0000b003a00d0
:1024a00010062700104078000004e00057003a00b2
:1024b0004e01900012938b00de00900021938b0060
:1024c0006e01900032938b00500037000182830030
:1024d000f0ff20000080600070079800fe00900070
:1024e000f00f200000806000000f98000e089000a0
:1024f000800040002006270000804000ae009000d1
:10250000010878007e009000800040000004210057
:10251000008040004e019000020878007e0090008c
:10252000800040000004230000804000de00900096
:10253000010878007e009000800040000004250023
:10254000008040006e019000020878000082830045
:102550000000e80000828b006000b800008fbe0021
:102560000182830010828300808f500003003100bd
:102570000000200011002000008fbe0000828300b8
:102580008000eb003e014000ae81480010828300d5
:102590008000eb000000510081805900100f98006e
:1025a000210f98001e099000ae0990000000210044
:1025b00001002000800f5100818f5900100036006b
:1025c000008283008000eb003e014000ae814800a5
:1025d00000002f00f1ff2f00020040008380480020
:1025e000100f9800210f98001e08900010828b0099
:1025f000a026270011c0b30001487800030037006f
:10260000a02627008040eb000148780000e8a900e0
:102610000080fa004f01be004f00be0000400600df
:10262000809fbe00829fbe000800fa00602927003c
:1026300010407800e14f500008003a00200a800066
:1026400060948b00600a800070948b0060292700e2
:1026500021c0b3000148780007003700200a80003d
:1026600080948b00600a800090948b006029270082
:1026700011c0b3000148780060292700104078009d
:10268000e14f500019003a00709483008000eb0085
:10269000c001dd0002002000609483008000eb0098
:1026a000001f710001977100909483008000eb007f
:1026b000c001dd0002002000809483008000eb0058
:1026c0000000710081807100200798003107980098
:1026d0002e009000be0090003e015000ae815800d8
:1026e0000200be0070828b0081828b000028a9004e
:1026f0000080fa004f01be004f00be0000400600ff
:10270000809fbe00829fbe000800fa00502927006b
:1027100010407800e14f500008003a00a00a800005
:1027200020948b00e00a800030948b005029270011
:1027300021c0b3000148780007003700a00a8000dc
:1027400040948b00e00a800050948b0050292700b1
:1027500011c0b300014878005029270010407800cc
:10276000e14f500019003a00309483008000eb00e4
:10277000c001dd0002002000209483008000eb00f7
:10278000001f710001977100509483008000eb00de
:10279000c001dd0002002000409483008000eb00b7
:1027a00000007100818071002007980031079800b7
:1027b0002e009000be0090003e015000ae815800f7
:1027c0000200be0090828b00a1828b0004a8a900a9
:1027d0000080fa004f01be004f00be00004006001e
:1027e0003600f800809fbe00829fbe00849fbe001e
:1027f000869fbe000200fa0030118000004f780072
:10280000402927009040780000c2b30080cf5000dc
:102810001900320020282700104078008080fb003b
:10282000c2012100810041009e4878008040e800fc
:1028300020282700014878002028270090407800b1
:10284000302827001040780080cf50006f003900fa
:10285000202827008040eb0001487800402927000d
:1028600010407800990307004029270001c2b300f7
:102870000148780065003700402927001e4878008d
:10288000302827008040eb000148780040292700cd
:10289000104078000080fb00c1042000810f500030
:1028a00021003c00b1042000810f50003a003d009f
:1028b00031042000810f50003f003200310420001d
:1028c000810f500011003c0081032000810f500057
:1028d0003500320081032000810f500004003c00cd
:1028e00021032000810f50002f00320041003700eb
:1028f00011042000810f5000330032002104200019
:10290000810f5000240032003a003700910420006b
:10291000810f50002c003c0051042000810f50001a
:1029200025003d002000370041052000810f5000a8
:102930000a003c00f1042000810f50001a003d0005
:10294000d1042000810f50000f003200e10420006c
:10295000810f500010003200260037007105200062
:10296000810f500004003c0061052000810f5000e1
:1029700011003d0008003700810f2000810f50003a
:10298000180032001b0037003028270041c0b30078
:10299000014878001b0037003028270031c0b30001
:1029a00001487800170037003028270021c0b30005
:1029b00001487800130037003028270011c0b30009
:1029c000014878000f0037004029270010407800a8
:1029d0003e0307004029270001c2b30001487800e8
:1029e000080037004029270001c2b30001487800e1
:1029f000040037004029270001c2b30001487800d5
:102a00000000000000c2b300004f78000168a90078
:102a10000080fa004f03be004f02be004f01be000f
:102a20004f00be003600f900004006000000fa002a
:102a30000188a9000080fa00004006000040da008a
:102a40000000fe003200f80001c0fe00881f780080
:102a50008a1f78004400f800080f20002802880030
:102a60000004900010059000a0009000300190003c
:102a7000c00190000300ca000280ca000030cb00f1
:102a80001a00cd004604c3000100ca004604c0007d
:102a90001e04c0000605c0000100cd002100980002
:102aa000050d7800eaba9700052578004400f90082
:102ab0004f0578004f0478003200f900000006004e
:102ac0003200f80001c0fe00801f78004000b00016
:102ad0000008eb004f007800801f78001000900085
:102ae0000018eb000018eb000008eb004f00780026
:102af0003200f900000006003200f80001c0fe00bc
:102b00004400f800020f20002202880091007800a3
:102b10003000ca003080ca000000cb002080ca000c
:102b20000000cb003100cd004000ca000000cb0007
:102b30000000cb000010cb003100cd001180cc0094
:0c2b40004400f9003200f900000006001b
:020000040000fa
:102b4c000000fa00a0032000303a8800213a8000ef
:102b5c00f0f32f0000806000203a8800213a8000ba
:102b6c0000fe2f0000806000203a88004827ef000c
:102b7c0040a7a9003200200080072000a1092000f6
:102b8c0033742000804978008149780082497800ac
:102b9c00103a800012002000600420007105200013
:102bac00237420008049780081497800824978009c
:102bbc0000000000113a80000000270080806000b7
:102bcc0000002300808f5000faff3a000000000044
:102bdc00113a800000022000008060000000e0003c
:102bec00fbff32000080fa00000006000000fa0033
:102bfc00113a8000f00b200000816000600420007e
:102c0c0071052000237420008049780081497800e8
:102c1c00824978002136800000f82f008080600007
:102c2c00e003200001007000203688000134800091
:102c3c00f00f2c00008060000080a00000348800a1
:102c4c0041368000f00f2800808060000060260074
:102c5c000100700040368800a134800000fc2f0079
:102c6c00008060006000b300a03488004136800012
:102c7c0000f82f00008060000050a0004036880053
:102c8c00d1368000f00f28008080600000202600e4
:102c9c0001007000d03688008134800000fc2f00c9
:102cac00008060000050a0008034880081348000d7
:102cbc00f00f2c008080600000f0210001007000fb
:102ccc0080348800d136800000f82f0080806000ae
:102cdc00a002200001007000d03688002135800051
:102cec0000f82f0080806000a0042000010070001c
:102cfc002035880031358000f00f2800808060007e
:102d0c0000502200010070003035880071358000c1
:102d1c0000f82f0080806000f0022000010070009d
:102d2c00703588007134800000fc2f00008060003a
:102d3c000040a0007034880041358000f00f28005e
:102d4c0080806000009027000100700040358800f2
:102d5c008135800000f82f0080806000e0022000a8
:102d6c00010070008035880081348000f00f2c0049
:102d7c008080600000102100010070008034880009
:102d8c00103a8000000178000260a000600420006e
:102d9c007105200023742000804978008149780057
:102dac00824978002fcea90021cea8002bcea800f6
:102dbc00302ea9006ecea9006eeea900304ea900ef
:102dcc0021e3a90061e3a9001e0ea900100ea800c2
:102ddc001e2ea900102ea90085eaa90001e6a90063
:102dec00612ea90050cea900544ea80015aea80023
:102dfc00158ea800156ea800150ea800546ea8001c
:102e0c0021e3a90061e3a90001e6a9001f4ea90076
:102e1c00114ea8001f0ea900110ea9001f6ea900cb
:102e2c00116ea9001f8ea900118ea9001faea9005a
:102e3c0011aea900504ea900506ea9001e4ea8005c
:102e4c001e6ea8001e8ea800356ea800352ea80098
:102e5c00316ea900312ea90001e6a90007e2a900f4
:102e6c00314ea8003b4ea800356ea800352ea800a8
:102e7c001eaea90010aea8001feea90011eea8000e
:102e8c00500ea9006f2ea900612ea8001fcea9001c
:102e9c0011cea800506ea900300ea8003ecea9009d
:102eac0030cea8003eeea90030eea800304ea800af
:102ebc00346ea900350ea900306ea900310ea900a0
:102ecc0030aea8003caea800346ea900350ea900a7
:102edc00000627008040eb00014878000080fa00d3
:102eec00000006000000fa002023ef002143a80098
:102efc002223ef00f0002000201988003223ef007d
:102f0c0050002000401988004119800000fe2f005d
:102f1c00008060000010a000401988002623ef00fc
:102f2c002e23ef003023ef0021e3a800004b2000fc
:102f3c00010020004dfc07000080fa000000060094
:102f4c000000fa0021e2a90021a2a9002182a90017
:102f5c002162a90001118000f0cf2f0000806000d9
:102f6c000011880020e2a90020c2a90020a2a9001b
:102f7c002062a9000111800090ff2f0000806000ea
:102f8c00001188002002a9000002200040118800d6
:102f9c0023e2a90023c2a90023a2a9002362a9004d
:102fac002342a90011118000f0f32f000080600073
:102fbc001011880022a2a90021428000f0ff2000fd
:102fcc000080600020428800214280000000270021
:102fdc0001007000204288003142800000ff2f0069
:102fec000100700030428800304280000020a000b8
:102ffc00304288000188a9002188a8000168a90036
:10300c002168a80021e2a8002342a8000080fa0051
:10301c00000006000000fa004822ef004382a900dd
:10302c004362a9004342a8004322a9004302a9001d
:10303c0042c2a80042a2a80040c2a90045e2a900d1
:10304c0042e2a900101280003000b3001012880078
:10305c001112800030fe2f0000806000c000b30011
:10306c001012880041e2a8000080fa00000006005f
:10307c000000fa006822ef006382a9006362a900d5
:10308c006342a8006322a9006302a80062c2a800e0
:10309c0062a2a90060c2a90061e2a8000080fa0047
:1030ac00000006000000fa00a822ef00a382a9008d
:1030bc00a362a900a342a900a322a900a302a9000c
:1030cc00a2c2a900a2a2a800a0c2a900a5e2a900c0
:1030dc00a2e2a900101580003000b3001015880082
:1030ec001115800030fe2f00008060001015880044
:1030fc00a1e2a8000080fa00000006000200fa001d
:10310c00004f78001e407800020007000080fa0093
:10311c00000006000200fa00004f7800a000210019
:10312c0001c2b30001487800b00021008040eb00e0
:10313c0001487800c000210021c1b300014878008b
:10314c001e80fb000000e00003003200e10f500085
:10315c000500320008003700c000210021c1b30077
:10316c000148780004003700c000210001c1b30001
:10317c00014878000000000015aea9000000000016
:10318c0000000000a0002100104078000080fb002f
:10319c0030050700b0002100104078000080fb00d3
:1031ac002c050700c0002100104078000080fb00b7
:1031bc002805070015aea8000080fa0000000600e4
:1031cc000000fa000080fa00000006000000fa007f
:1031dc004021ef00010a800080ff2f00008060007a
:1031ec00000a8800410a800080ff2f0000806000e8
:1031fc00400a8800410a800000c0210001007000d4
:10320c00400a88004b01a8004ae1a900510a80003d
:10321c0000fe2f0000806000500a8800010a800028
:10322c0000c0210001007000000a88004301a800c2
:10323c0042e1a900110a800000fe2f00008060000e
:10324c00100a8800010a8000f0f92f00008060004d
:10325c00000a880001428000f0f82f000080600016
:10326c000060a000004288000028a9002028a800c7
:10327c00410a800080ff2f00008060003000b30006
:10328c00400a8800010a800080ff2f000080600047
:10329c003000b300000a88000080fa00000006002d
:1032ac000000fa005021ef00810a800080ff2f00ff
:1032bc0000806000800a8800c10a800080ff2f0017
:1032cc0000806000c00a8800c10a800000c0210094
:1032dc0001007000c00a88005b01a8005ae1a90037
:1032ec00d10a800000fe2f0000806000d00a880008
:1032fc00810a800000c0210001007000800a880053
:10330c005301a80052e1a900910a800000fe2f0091
:10331c0000806000900a8800810a8000f0f92f007c
:10332c0000806000800a880091428000f0f82f0035
:10333c00008060000060a0009042880004a8a900f2
:10334c0024a8a800c10a800080ff2f000080600024
:10335c003000b300c00a8800810a800080ff2f0073
:10336c00008060003000b300800a88000080fa0002
:10337c00000006000000fa000148800080ff2f00ca
:10338c0000806000004888008038210030488800a8
:10339c00803821002048880001a9a900014880003c
:1033ac00f0f82f0000806000004888000148800081
:1033bc00f03f2e000080600000a0a00000488800b4
:1033cc0010488000f001b3001048880001488000cc
:1033dc0080ff2f00008060003000b30000488800a0
:1033ec000080fa00000006000000fa00514880003e
:1033fc0080ff2f000080600050488800803821003a
:10340c008048880080382100704888000ba9a900ea
:10341c0051488000f0f82f00008060005048880070
:10342c0051488000f03f2e008080600000c02000da
:10343c00010070005048880060488000f001b30023
:10344c00604888005148800080ff2f000080600099
:10345c003000b300504888000080fa0000000600dd
:10346c000000fa001221ef001221a80012c1a900dd
:10347c0091088000f0fc2f0000806000900888000c
:10348c000a21ef00100020007008880013e1a8004a
:10349c000080fa00000006000000fa002021ef0076
:1034ac002021a80020c1a90001098000f0fc2f00f8
:1034bc0000806000000988001821ef001000200037
:1034cc00e008880021e1a8000080fa000000060056
:1034dc000200fa00000f78002c21ef002c21a9002b
:1034ec002cc1a90061098000f0fc2f000080600055
:1034fc00600988002221ef009e00780041098800b5
:10350c002c61a90005e8a900b14280000000270049
:10351c0001007000b042880025e8a8002de1a80049
:10352c000080fa00000006000000fa0000012800ec
:10353c0010468800d1428000f08f2f008080600000
:10354c000030200001007000d042880006c8a9009d
:10355c0026c8a8000080fa00000006000200fa004d
:10356c00000f78001021ef001021a90010c1a90054
:10357c0081088000f0fc2f0000806000800888002b
:10358c000621ef009e007800610888001061a900f8
:10359c0000e8a90011428000f0ff28008080600044
:1035ac0000002600010070001042880020e8a800ee
:1035bc0011e1a8000080fa00000006000000fa00eb
:1035cc00d000210011c0b300014878000003210095
:1035dc008040eb0001487800100321008040eb0094
:1035ec00014878000000eb00d08188008e020700b3
:1035fc000000eb009081880010002000b081880052
:10360c0000772100c08188000000eb00f081880069
:10361c000000eb0010828b001082830000828b0074
:10362c004004270011c0b300014878005004270063
:10363c0011c0b30001487800600427008040eb0003
:10364c0001487800700427008040eb0001487800a6
:10365c006000b800c0808800d1808800a0052700d9
:10366c008040eb0001487800b00527008040eb005b
:10367c00014878000000eb00f0828b000080fa001b
:10368c00000006000000fa00c1818000707020006c
:10369c00808f500002003e0080702000c0818800a6
:1036ac00c181800000a62e00808f500002003600e1
:1036bc0000a62e00c08188000080fa0000000600e1
:1036cc000600fa00404798004e4090000080fb0036
:1036dc006101b900e0fc2f00f1ff2f000200400057
:1036ec00838048005202200003002000820f50000b
:1036fc00838f5800fc013e000006010025003700b6
:10370c00fb013700fa013700f9013700f8013700e7
:10371c00f7013700f6013700f5013700f4013700e7
:10372c00f3013700f2013700f1013700f0013700e7
:10373c00ef013700ee013700220037003e00370062
:10374c007e003700860037008f003700a700370057
:10375c00b0003700b8003700bb003700c40037009a
:10376c00c5003700d8003700e900370009013700e1
:10377c002101370065013700700137007e013700e9
:10378c008c0137009a013700a3013700c2013700c2
:10379c00ca013700c0012100104078000080fb00f6
:1037ac00c800dd00d0012100104078000080fb0033
:1037bc0001007000c0818800c081800067ff070095
:1037cc00ce01370060002100b1c1b3000148780080
:1037dc007000210031c3b300014878008000210043
:1037ec0001c3b30001487800ff010700600021000d
:1037fc001080fb00710021009180fb00c808dd00e7
:10380c00810070000000eb000100780081002100b5
:10381c009181fb008000eb00f20f2000028161001f
:10382c0003f02f008380600081007100020207000a
:10383c00d0818800b1013700c00121009040780090
:10384c006000210001487800d001210090407800f0
:10385c007000210001487800e001210090407800c0
:10386c008000210001487800600021001080fb00de
:10387c00710021009180fb00c808dd008100700000
:10388c000000eb0001007800810021009181fb0019
:10389c008000eb00f20f20000281610003f02f008a
:1038ac008380600081007100e3010700000f780045
:1038bc00d181800010c0b3001e017800810f51002f
:1038cc00010039000040eb004103210080487800e2
:1038dc00d181800010c0b3001e017800810f51000f
:1038ec00010039000040eb0091042700804878006b
:1038fc0040012000908188009e0078009180880013
:10390c00b004270011c0b300014878006004270000
:10391c0010407800e34f5000040032006004270090
:10392c00904078007004270001487800600427005c
:10393c0031c0b3000148780070013700c00121008c
:10394c00104078000080fb000000ea004f00de0011
:10395c00804078004003210001487800670137005f
:10396c00c0012100104078000080fb00c800dd0081
:10397c00d0012100104078000080fb000100700095
:10398c00908188005d013700c00121001040780053
:10399c000004e00010003200c0012100104078004b
:1039ac00e14f50000c003200c001210010407800a3
:1039bc00e24f500008003200c00121001040780096
:1039cc00e34f500004003200c00121001040780089
:1039dc00e44f500048013a00c001210090407800ab
:1039ec00600427000148780044013700c001210021
:1039fc00104078000080fb000000ea004f00de0061
:103a0c0080407800d0002100014878007e0107003a
:103a1c003a013700c0012100104078000080fb0003
:103a2c000000ea004f00de008040780050042700c0
:103a3c000148780031013700c001210010407800a6
:103a4c00370107002d01370089fd0700c001210057
:103a5c00104078000080fb000000ea004f00de0000
:103a6c00804078004004270001487800230137008b
:103a7c006101070021013700c001210010407800ce
:103a8c000080fb00c800dd00d00121001040780050
:103a9c000080fb000100700080808800e0012100a4
:103aac00104078000080fb000000ea004f00de00b0
:103abc008040780080042700014878000000eb006b
:103acc00100798000d013700c0012100104078004c
:103adc000080fb00c800dd00d00121001040780000
:103aec000080fb000100700090808800e001210044
:103afc00104078000080fb000000ea004f00de0060
:103b0c00804078009004270001487800fb003700c3
:103b1c00c0012100104078000080fb008000eb0009
:103b2c00c801dd0002002000d00121001040780007
:103b3c000080fb008000eb00c000dd0000002000d6
:103b4c000001710081817100e001210010407800ba
:103b5c000082fb008002eb004828dd00c820de005c
:103b6c00810070004820dd0000017100818171002e
:103b7c00f0012100104078000080fb008000eb0079
:103b8c000000710081807100a0808800b1808800e5
:103b9c00da003700c0012100104078000080fb00e3
:103bac000000ea004f00de0080407800a0042700ef
:103bbc0001487800d0012100104078000080fb0003
:103bcc000000ea004f00de0080407800b0042700bf
:103bdc0001487800e0012100104078000080fb00d3
:103bec000000ea004f00de0080407800c00427008f
:103bfc0001487800c1003700700427008040eb00ba
:103c0c0001487800c0012100104078000004e00059
:103c1c0013003200c001210010407800e14f500029
:103c2c000f003200c001210010407800e24f50001c
:103c3c000b003200c001210010407800e34f50000f
:103c4c0007003200c001210010407800e44f500002
:103c5c0003003200c00121008040eb0001487800d5
:103c6c00c0012100104078000004e0000d003a0073
:103c7c00500427008040eb0001487800a004270086
:103c8c008040eb0001487800b00427008040eb0036
:103c9c0001487800c00427008040eb000148780000
:103cac0015003700d0012100104078000004e0001e
:103cbc000b003a00c00121009040780060042700fe
:103ccc001040780080cf50000b00320060042700b9
:103cdc0090407800700427000148780006003700f7
:103cec005004270011c0b300014878006000b800f0
:103cfc00c0808800d1808800c001210090407800ed
:103d0c0060042700014878007c003700c0012100c6
:103d1c00104078000080fb00c800dd00d0012100bd
:103d2c00104078000080fb00010070001007980024
:103d3c001e009000a0938b0070003700c001210082
:103d4c00104078000080fb00c800dd00d00121008d
:103d5c00104078000080fb000100700010079800f4
:103d6c001e009000b0938b00c1262700602727000f
:103d7c005efb070061003700c00121001040780095
:103d8c000080fb00c800dd00d0012100104078004d
:103d9c000080fb0001007000100798001e009000ce
:103dac00c0938b00c1262700602727004ffb07001c
:103dbc0052003700c0012100104078000080fb0049
:103dcc00c800dd00d0012100104078000080fb000d
:103ddc0001007000100798001e009000d0938b001b
:103dec00c12627006027270040fb0700430037004f
:103dfc00c0012100104078000080fb00c800dd00ed
:103e0c00d0012100104078000080fb000100700000
:103e1c00b081880039003700c00121009040780043
:103e2c006000210001487800d0012100904078000a
:103e3c007000210001487800e001210090407800da
:103e4c008000210001487800670007006000210015
:103e5c001080fb00710021009180fb00c808dd0080
:103e6c00810070000000eb0001007800810021004f
:103e7c009181fb008000eb00f20f200002816100b9
:103e8c0003f02f0083806000810071006a0007003e
:103e9c00d081880019003700c00121001040780043
:103eac000080fb000000ea004f00de00804078003c
:103ebc00a00527000148780010003700c001210040
:103ecc00104078000080fb000000ea004f00de008c
:103edc0080407800b0052700014878000000eb0016
:103eec0010079800050037000000000003003700a1
:103efc00000000000100370000000000c02927006e
:103f0c0010407800e14f500003003a00c029270010
:103f1c008040eb00014878000080fa0000000600a9
:103f2c000200fa00004f78001e80fb000000ea003f
:103f3c004f00de008040780000032100014878002b
:103f4c000080fa00000006000000fa00b0292700eb
:103f5c00904078000003210001487800b029270028
:103f6c00104078000080fb000000e9004f00de00ec
:103f7c0080407800b0292700014878000080fa00c2
:103f8c00000006000200fa00004f78001e80fb00c3
:103f9c000000ea004f00de00804078001003210092
:103fac00014878000080fa00000006000000fa00ca
:103fbc00a0292700904078001003210001487800c8
:103fcc00a0292700104078000080fb000000e900c9
:103fdc004f00de0080407800a029270001487800bf
:103fec000080fa00000006000000fa001c00070028
:103ffc000080fa00000006000000fa0071000700c3
:10400c000080fa00000006000000fa0066000700bd
:10401c000080fa00000006000000fa008a00070089
:10402c000080fa00000006000000fa00a40007005f
:10403c000080fa00000006000600fa001007980045
:10404c00210798001e009000ae009000b100070000
:10405c00000f78001e0078000080fa0000000600b7
:10406c000000fa00150ea80015aea9000000000013
:10407c000000000060002100104078000080fb0070
:10408c007401070070002100104078000080fb00d4
:10409c007001070080002100104078000080fb00b8
:1040ac006c01070015aea800150ea9000000000059
:1040bc0000000000000000000000000000000000f4
:1040cc00150ea8000080fa00000006000000fa009f
:1040dc0015aea90000000000000000000004200044
:1040ec005c0107000000eb005a0107000000eb0028
:1040fc005801070015aea8000080fa000000060069
:10410c000000fa0015aea90000000000000000003d
:10411c00000a20004f0107000000eb004d010700d2
:10412c000000eb004b01070015aea80000000000da
:10413c000000000000000000000000000000000073
:10414c000000000000000000000000000000000063
:10415c000000000015aea9000000000000000000e7
:10416c000000eb004e01070080407800a000210009
:10417c00014878000000eb004901070080407800fe
:10418c00b0002100014878000000eb00440107005a
:10419c0080407800c00021000148780015aea800ce
:1041ac000080fa00000006000000fa00d000210098
:1041bc0010407800d7fb0700020007000080fa00cf
:1041cc00000006000000fa00d0002100104078002a
:1041dc000080fb000000e00003003200e10f500003
:1041ec0005003200080037006000210001c1b30057
:1041fc0001487800080037006000210081c1b3003d
:10420c0001487800040037006000210081c1b30030
:10421c000148780000000000700021008040eb0095
:10422c0001487800800021008040eb0001487800b4
:10423c00050007000000eb009081880088ff070054
:10424c000080fa00000006000000fa000000eb00fd
:10425c00d081880080002100104078000080fb0095
:10426c004400de00004078008080fb00d08180009c
:10427c0001007000d081880070002100104078008f
:10428c000080fb00c400dd00f0ff20008080600097
:10429c00d081800001007000d08188006000210076
:1042ac00104078000080fb00cc00dd00d081800045
:1042bc0001007000d08188000080fa000000060028
:1042cc000000fa00d08180004c00de000040780035
:1042dc00804078000144a000600021000148780073
:1042ec00d08180004400de00804078007000210006
:1042fc0001487800d0818000804078004000200088
:10430c008008dd0080002100014878000080fa0060
:10431c00000006000600fa0010079800210798001c
:10432c000000eb00000f78004e4090000080fb0076
:10433c004400de00004078000080fb001e0f70007f
:10434c003e4090000080fb00c400dd00f0ff200028
:10435c00008060001e0f70002e4090000080fb005b
:10436c004c00dd001e0f70001e0078000080fa006b
:10437c00000006000600fa000001780021079800f2
:10438c002e0090004c00de00004078000044a0009d
:10439c00004f78002e0090004400de0000407800b2
:1043ac00104798002e0090008040780040002000bc
:1043bc000008dd00204798000e007800820078008d
:1043cc00904878008100e8000000e80090487800f0
:1043dc008100e8000000e800904878008100e800c7
:1043ec000000e800020078000080fa0000000600df
:1043fc000400fa001007980040128000000f7800ab
:10440c001e00900040128800000000000012800086
:10441c00610060000000e000fcff32000080fa0048
:10442c00000006000200fa0040128000000f780025
:10443c001e0078000080fa00000006000400fa005c
:10444c001007980040128000000f78001e009000aa
:10445c004012880000000000001280006100600023
:10446c000000e000fcff320040128000000f7800da
:10447c001e0078000080fa00000006000800fa0018
:10448c00100798002107980032079800401380000d
:10449c00000f78009e00900041138800352ea90073
:1044ac00356ea9000000000000138000620060005f
:1044bc000000e000fcff3a00352ea800356ea80085
:1044cc0040138000000f7800ae009000411388006c
:1044dc00352ea9000000000000138000620060006f
:1044ec000000e000fcff3a00352ea80040138000cd
:1044fc00000f7800be00900041138800356ea900b3
:10450c000000000000138000620060000000e0006a
:10451c00fcff3a00356ea8000080fa00000006008f
:10452c000600fa001007980021079800401380003d
:10453c00000f78009e00900041138800352ea900d2
:10454c000000000000138000620060000000e0002a
:10455c00fcff3a00352ea80040138000000f7800b5
:10456c00ae00900041138800356ea90000000000d9
:10457c0000138000620060000000e000fcff3a00c5
:10458c00356ea8000080fa00000006000400fa0056
:10459c001007980040138000000f78009e009000d8
:1045ac0041138800356ea900000000000013800044
:1045bc00620060000000e000fcff3a00356ea800cd
:1045cc000080fa00000006000400fa0010079800b2
:1045dc0040138000000f78009e009000411388006b
:1045ec000000000000138000610060000000e0008b
:1045fc00fcff32000080fa00000006000200fa0006
:10460c0040138000000f78001e0078000080fa0034
:10461c00000006000400fa00100798004013800008
:10462c00000f78009e0090004113880000000000ed
:10463c0000138000610060000000e000fcff32000d
:10464c0040138000000f78001e0078000080fa00f4
:10465c00000006000400fa001007980040158000c6
:10466c00000f78001e00900040158800000000002c
:10467c0000158000610060000000e000fcff3200cb
:10468c000080fa00000006000200fa0040158000cd
:10469c00000f78001e0078000080fa000000060071
:1046ac000400fa001007980040158000000f7800f5
:1046bc001e009000401588000000000000158000ce
:1046cc00610060000000e000fcff3200401580003b
:1046dc00000f78001e0078000080fa000000060031
:1046ec000400fa00204798000000eb00000f78004f
:1046fc002e40900004000700000f78001e00780088
:10470c000080fa00000006000400fa002047980020
:10471c002e4090007f4060007f4060007f40600032
:10472c000080fb007f0060004219800001fe2f001a
:10473c008100610001007000401988008025200074
:10474c000100200049f607002023a8008025200046
:10475c000100200045f607002023a90000000000fe
:10476c0000198000610060000000e000fcff3200d6
:10477c0001188000010f78001e0078000080fa00fc
:10478c00000006000200fa0054cea800142ea80067
:10479c00e00720000100200034f60700142ea900c9
:1047ac000000000000000000000000000000eb0012
:1047bc0022ff0700000f78001e8fea001e00780011
:1047cc000080fa00000006000000fa00dcf8070088
:1047dc0006f9070079fb0700d9f90700a9fb0700c8
:1047ec00c08180005dfb070021fa0700bdf90700be
:1047fc0000772100010020001cf607004afb07008f
:10480c00007721000100200018f60700c1e8a9007c
:10481c0013fb07006dfa0700d6fa07001efb070012
:10482c009ffa0700f0fa07000000eb00e081880017
:08483c00346ea800ffff3700f5
:020000040000fa
:1048440006100000786200008000000000100000e4
:104854000600000080000000fadf000006000000ef
:104864008000000094720000060000008200000036
:1048740020010100000100007e720000160000000b
:10488400800000009a720000040000008200000012
:0c48940001010100000000000000000015
:00000001FF
